:1000000005308A00B12D000049376739E5396510A0
:10001000E337ED306E326F1D20050D00543465104E
:10002000E734F6326E10733AF234EE33A0347310C4
:100030003A10A5398A0600005534703473342C34D4
:10004000203469346E34743465346E3474346134FD
:1000500020346434653420346E3475346534763439
:100060006F34203475346E34203463346F346D341F
:1000700061346E3464346F3420347634E1346C345B
:10008000693464346F340A340D3441346C34673469
:1000900075346E346F347334203463346F346D349C
:1000A00061346E3464346F347334203476346134A4
:1000B0006C34693464346F347334203473346F3483
:1000C0006E343A340A340D3420346D346F34743461
:1000D0006F34723420346F346E342C3420347034E6
:1000E00077346D343D34353430342C3420346C3432
:1000F00065346434733420346F34663466342C349D
:100100002034743465346D34703465347234613441
:1001100074347534723461340A340D340034D4329A
:100120006D382E1DA012661043050D00523084005C
:10013000831300080319A9280630F800F701F70B0C
:100140009F28F80B9E287B30F700F70BA528800B23
:100150009C280800590EF039F7000F300805770485
:100160008800000008140330F700F70BB5280810CA
:1001700008000808F700080E0F39F8000800831679
:10018000081088100811831288100F308316080594
:10019000F038880083120815000008140000B92008
:1001A0007808D900081000000814D628D7280000C5
:1001B000B9207808D80008100F3083160805880089
:1001C0008312590EF700F030F70577085804F8004D
:1001D0007808D800D81BC528561C881056188814D3
:1001E0000000081100000810570ED8000F30D80585
:1001F0005808D900AA2057080F39D800D900AA20DA
:1002000008002830C5000C30C6000130C700063099
:10021000C8000810881008110F30831608058800E0
:100220000810881008110F308312D2009620013078
:10023000C4004408033C031C25290330D900AA202C
:100240000530D2009620C40A19290230D900AA200C
:100250000530D2009620C4014408033C031C3C290D
:1002600045304407840083130008C900D6014908BB
:10027000D700BF20C40A2C298A110A12F12D450883
:10028000C7004408C600043003178D0000308F00FB
:1002900003130B08C9008B13831603178C170C1458
:1002A0000000000083120313C91B8B1703170C08EF
:1002B0007F3903199D290313C90003170D08031380
:1002C000CA0003170F080313CB0049080C1E662948
:1002D00099004A0803178D0003134B0803178F007A
:1002E00003130B08CC008B13831603178C170C1405
:1002F0000000000083120313CC1B8B1703170C0D97
:100300000E0D7F3903199D290313C90003170D082A
:100310000313CA0003170F080313CB0049080C1E70
:100320008F2999004A0803178D0003134B08031700
:100330008F008D0A03198F0A482903138C1E9E29EA
:100340001A08C8000D3C0319B62948080C1EA62936
:1003500099004708FA004608C60A0319C70A84002C
:1003600083137A188317480880009E290A300C1ED0
:10037000B72999000D300C1EBB2999004708FA00D7
:100380004608C60A0319C70A840083137A1883171C
:1003900080010E3003178D0000308F0003101630DF
:1003A0000313C9000B08CA008B13831603178C179D
:1003B0000C140000000083120313CA1B8B170318D0
:1003C0000A2A03170C087F390313CA0003170D0804
:1003D0000313CB0003170F080313CC004A080C1EAD
:1003E000EF2999004B0803178D0003134C080317DE
:1003F0008F0003130B08CD008B13831603178C1784
:100400000C140000000083120313CD1B8B17C90BC3
:100410000A2A2A2A03170C0D0E0D7F390313CA006E
:1004200003170D080313CB0003170F080313CC00A9
:100430004A080C1E192A99004B0803178D00031354
:100440004C0803178F008D0A03198F0A031003133A
:10045000C90BD229440884008313451883178008E8
:100460000319452ACA010408C9004A10831B4A140B
:1004700000080C1E392A99004908840083134A1881
:100480008317840A0319850A2F2A0A300C1E462A6C
:1004900099000D300C1E4A2A99008A110A12102E5A
:1004A000ED016A08EF006908EE006F08F1006E08C0
:1004B000F0007108FA007008840083137A1883171B
:1004C00080080319672AF00A0319F10A592A6E08ED
:1004D0007002F7007108FA006F08031C6F0FFA0230
:1004E0007708F80078086D0203188D2A6D086907EF
:1004F000840083136A1883170008EE006D086B07E9
:10050000840083136C18831700086E0203198B2A6A
:100510000030F8008F2AED0A512A0130F800080057
:100520007430C8006530C9006D30CA007030CB002F
:100530006530CC007230CD006130CE007430CF0019
:100540007530D0007230D1006130D200D301C701C4
:100550004830C6007030D6007730D7006D30D800F4
:10056000D901D5015630D4006D30DC006F30DD008C
:100570007430DE006F30DF007230E000E101DB013B
:100580005C30DA006C30E4006530E5006430E60091
:100590007330E700E801E3016430E2004508EA0057
:1005A0004408E9004708EC004608EB005022F80830
:1005B0000319DE2A0030F8000F2B0D2B4508EA0046
:1005C0004408E9005508EC005408EB005022F808F4
:1005D0000319EE2A0130F8000F2B0D2B4508EA0015
:1005E0004408E9005B08EC005A08EB005022F808C8
:1005F0000319FE2A0230F8000F2B0D2B4508EA00E4
:100600004408E9006308EC006208EB005022F80897
:1006100003190D2B0330F8000F2BFF30F8008A115F
:100620000A12142E0B08C4008B13831603178C17A1
:100630000C140000000083120313C41B8B17031754
:100640008C0803193D2B0D080313C40003170F0872
:100650000313C50003170C0803130C1E2D2B990060
:10066000440803178D000313450803178F008D0AF4
:1006700003198F0A0313122B031703138A110A128B
:100680002E2E0030F8001F08C33978049F000A306E
:10069000D20096209F149F184B2B03101E0DC501EE
:1006A000C4008E30F7004508F8004408F900FA014C
:1006B000F808031D652B7908F800F9010830F702E6
:1006C000F808031D652BF7016D2B0310F81B6C2B2D
:1006D000F90DF80DF703652BF8137A08AC007908CB
:1006E000AB007808AA007708A9008A110A122F2EF9
:1006F000530B7B2B7E2B4030D4007F2BD401013059
:100700005202D40754088038D500D6015508D700C6
:10071000BF2008005108073A0319982B0B3A031918
:100720009D2B063A0319A52B023A0319AB2BB02BCC
:100730000130D200D3007823B52BD6010130D70089
:10074000BF200230D2009620B52B0130D2000230FB
:10075000D3007823B52BD6011030D700BF20B52B9E
:100760000130D6005108D700BF2008000B08C50093
:100770008B13831603178C170C14000000008312D0
:100780000313C51B8B170318ED2B03170C087F39B8
:100790000313C50003170D080313C60003170F0842
:1007A0000313C7004508D1008A23460803178D00AC
:1007B0000313470803178F0003130B08C8008B139C
:1007C000831603178C170C14000000008312031308
:1007D000C81B8B17C40BED2B0C2C03170C0D0E0D27
:1007E0007F390313C50003170D080313C600031751
:1007F0000F080313C7004508D1008A2346080317D2
:100800008D000313470803178F008D0A03198F0A01
:1008100003100313C40BB62B08008318122C593095
:1008200084008313F701F801F901FA01D901DA0113
:10083000DB01DC0158085704560455040319502CF9
:100840002030DD000310D10DD20DD30DD40DD90D04
:10085000DA0DDB0DDC0D58085C02031D392C57083E
:100860005B02031D392C56085A02031D392C55080A
:100870005902031C4A2C5508D9025608031C560F6E
:10088000DA025708031C570FDB025808031C580FE5
:10089000DC020314F70DF80DF90DFA0DDD0B222C17
:1008A00059088000840A5A088000840A5B08800086
:1008B000840A5C08800008000408C9004808CB00CE
:1008C0000319EE2C4708D4004608D3004508D2008F
:1008D0004408D100D801D7012030D6008230D5009D
:1008E00051080319E02CD90055080319E02CD90749
:1008F0000318812C7F30D902031CE02C0319E02C53
:10090000852C8130D9070318E02C5908F700F8012D
:10091000F901FA015208DD00DD175308DC00540824
:10092000DB001830D900DA015B1CAE2C5808FA073E
:10093000031CA02CF90A031DA02CF80A0319DA17CE
:100940005708F907031CA72CF80A0319DA175608E9
:10095000D300D3175308F8070318DA17DA0DF80C89
:10096000F90CFA0CDD0CDC0CDB0C0310D90B932C0E
:100970000130F7070318E02CF81BC52CDD0DFA0D2C
:10098000F90DF80DF7030319E02CDD1FD62CFA0A38
:10099000031DD62CF90A031DD62CF80A031DD62CEC
:1009A000F80CF90CFA0CF70A0319E02C5208DA00DB
:1009B0005608DA06DA1FDE2CF817E42CF813E42CBC
:1009C000F701F801F901FA017A08C7007908C600B1
:1009D0007808C5007708C400CB0B622C4708D40008
:1009E0004608D3004508D2004408D1005108B63C5F
:1009F000D100FA015208D500D2170310D20CD30C43
:100A0000D40CFA0CF90CF80CF70CD10BFD2CD51FFB
:100A1000142DF709F809F909FA09F70A0319F80A70
:100A20000319F90A0319FA0A7A08C7007908C600F7
:100A30007808C5007708C400C71F2B2DC903C91645
:100A4000C409C509C609C709C40A0319C50A031997
:100A5000C60A0319C70A3B30D0009A30CF00CA300B
:100A6000CE00CD010A30CB0048080319C90A83140F
:100A70004430840083134708D4004608D300450857
:100A8000D2004408D1005008D8004F08D7004E08C3
:100A9000D6004D08D5000D247808F708031D632DF6
:100AA000480A4B020319632D49080319652D0F39B4
:100AB0004B0203195D2D0318952DC91B952D491B5C
:100AC000652D2030912D2030C905C91E732DC91206
:100AD0004808031DC9037708C9002D30D1008A23B7
:100AE0004908F700C90148084B02031D812D77080A
:100AF000C9002E30D1008A234908F7002030C905EB
:100B000000303030C91E912DC9124808031DC90399
:100B10007708C9002D30D1008A234908F700C901A0
:100B20003030F7077708D1008A2383105008D400AB
:100B30004F08D3004E08D2004D08D100D801D7018C
:100B4000D6010A30D5000D247A08D0007908CF00EC
:100B50007808CE007708CD00CB0B372D8A110A120A
:100B60004A2E03081F3983008316031787150830A0
:100B70000313990002309A00A63098009030831237
:100B80009800FF30A600A61526088316870083125A
:100B900026162608831687003130930028308312EA
:100BA00094008316941714138312A701A801AC01B3
:100BB000AB01AA01A901AE01AD0183160317090813
:100BC000C039890003131F129F12003003178800D9
:100BD000831287018801890183130313A001A101F6
:100BE00001298B15FF3083169604C03083128B04C5
:100BF000831603170908C0391F38890003131F1211
:100C00009F12FF3003178800831203131F179F17CB
:100C100083169F1383121F14C5012F30C4003F2970
:100C2000C5012F30C400902A7808C3004308031977
:100C3000232E013A0319242E033A0319252E013AD3
:100C40000319262E272E2E2E2E2E2E2E2E2E1C3023
:100C500003178D0000308F000313122B412BD2019C
:100C60000130D30078238F3003178D0000308F00C0
:100C7000031007300313C400B623893084002C0806
:100C8000C7002B08C6002A08C5002908C400023086
:100C9000C8005C2C933003178D0000308F000314C4
:100CA00004300313C400B623C830D20096200C2EA3
:060CB0000030F8006300B3
:04400E00E22FFF3F5F
:00000001FF
;PIC16F887
;CRC=624D  CREATED="10-Jun-23 22:58"
