:1000000003308A00242B0000D4326D382E1DA0123C
:10001000661043050D003B3084008313000803196C
:100020001E280630F800F701F70B1428F80B1328E8
:100030007B30F700F70B1A28800B11280800420EBE
:10004000F039F7000F300805770488000000081425
:100050000330F700F70B2A28081008000808F700FB
:10006000080E0F39F80008008316081088100811D0
:10007000831288100F3083160805F0388800831229
:1000800008150000081400002E207808C20008108F
:10009000000008144B284C2800002E207808C100CE
:1000A00008100F308316080588008312420EF700EF
:1000B000F030F70577084104F8007808C100C11B4B
:1000C0003A283F1C88103F188814000008110000CF
:1000D0000810400EC1000F30C1054108C2001F20AA
:1000E00040080F39C100C2001F2008002830AE00B0
:1000F0000C30AF000130B0000630B100081088109D
:1001000008110F30831608058800081088100811A0
:100110000F308312BB000B200130AD002D08033CD3
:10012000031C9A280330C2001F200530BB000B209F
:10013000AD0A8E280230C2001F200530BB000B2004
:10014000AD012D08033C031CB1282E302D0784007F
:1001500083130008B200BF013208C0003420AD0A8A
:10016000A1288A110A12622B0030F8001F08C33937
:1001700078049F000A30BB000B209F149F18BE28F4
:1001800003101E0DAE01AD008E30F7002E08F800F2
:100190002D08F900FA01F808031DD8287908F8009D
:1001A000F9010830F702F808031DD828F701E02804
:1001B0000310F81BDF28F90DF80DF703D828F81302
:1001C0007A08AC007908AB007808AA007708A90083
:1001D0008A110A12792B3C0BEE28F1284030BD0021
:1001E000F228BD0101303B02BD073D088038BE004A
:1001F000BF013E08C000342008003A08073A03193E
:100200000B290B3A03191029063A03191829023A47
:1002100003191E2923290130BB00BC00EB2028292B
:10022000BF010130C00034200230BB000B20282960
:100230000130BB000230BC00EB202829BF01103088
:10024000C000342028290130BF003A08C000342003
:1002500008000B08AE008B13831603178C170C14C1
:100260000000000083120313AE1B8B1703186029D4
:1002700003170C087F390313AE0003170D0803138F
:10028000AF0003170F080313B0002E08BA00FD20BB
:100290002F0803178D000313300803178F00031373
:1002A0000B08B1008B13831603178C170C14000076
:1002B000000083120313B11B8B17AD0B60297F293C
:1002C00003170C0D0E0D7F390313AE0003170D0835
:1002D0000313AF0003170F080313B0002E08BA0072
:1002E000FD202F0803178D000313300803178F001C
:1002F0008D0A03198F0A03100313AD0B2929080077
:1003000083188529423084008313F701F801F9012D
:10031000FA01C201C301C401C501410840043F0400
:100320003E040319C3292030C6000310BA0DBB0DCB
:10033000BC0DBD0DC20DC30DC40DC50D4108450258
:10034000031DAC2940084402031DAC293F084302A9
:10035000031DAC293E084202031CBD293E08C2020F
:100360003F08031C3F0FC3024008031C400FC40298
:100370004108031C410FC5020314F70DF80DF90DD8
:10038000FA0DC60B952942088000840A43088000B4
:10039000840A44088000840A450880000800040894
:1003A000B2003108B4000319612A3008BD002F08DB
:1003B000BC002E08BB002D08BA00C101C0012030CE
:1003C000BF008230BE003A080319532AC2003E081B
:1003D0000319532AC2070318F4297F30C202031CF1
:1003E000532A0319532AF8298130C2070318532AC4
:1003F0004208F700F801F901FA013B08C600C617E8
:100400003C08C5003D08C4001830C200C301441CAC
:10041000212A4108FA07031C132AF90A031D132A8B
:10042000F80A0319C3174008F907031C1A2AF80A27
:100430000319C3173F08BC00BC173C08F807031892
:10044000C317C30DF80CF90CFA0CC60CC50CC40C80
:100450000310C20B062A0130F7070318532AF81BB2
:10046000382AC60DFA0DF90DF80DF7030319532AB2
:10047000C61F492AFA0A031D492AF90A031D492AF7
:10048000F80A031D492AF80CF90CFA0CF70A0319AB
:10049000532A3B08C3003F08C306C31F512AF8175D
:1004A000572AF813572AF701F801F901FA017A08D7
:1004B000B0007908AF007808AE007708AD00B40B43
:1004C000D5293008BD002F08BC002E08BB002D0820
:1004D000BA003A08B63CBA00FA013B08BE00BB17A6
:1004E0000310BB0CBC0CBD0CFA0CF90CF80CF70C8F
:1004F000BA0B702ABE1F872AF709F809F909FA0909
:10050000F70A0319F80A0319F90A0319FA0A7A080B
:10051000B0007908AF007808AE007708AD00B01FD2
:100520009E2AB203B216AD09AE09AF09B009AD0AF1
:100530000319AE0A0319AF0A0319B00A3B30B90018
:100540009A30B800CA30B700B6010A30B40031089A
:100550000319B20A83142D30840083133008BD00C0
:100560002F08BC002E08BB002D08BA003908C100B6
:100570003808C0003708BF003608BE008021780860
:10058000F708031DD62A310A34020319D62A320885
:100590000319D82A0F3934020319D02A0318082B5B
:1005A000B21B082B321BD82A2030042B2030B20576
:1005B000B21EE62AB2123108031DB2037708B20058
:1005C0002D30BA00FD203208F700B20131083402A4
:1005D000031DF42A7708B2002E30BA00FD2032083D
:1005E000F7002030B20500303030B21E042BB212BA
:1005F0003108031DB2037708B2002D30BA00FD2088
:100600003208F700B2013030F7077708BA00FD2052
:1006100083103908BD003808BC003708BB00360815
:10062000BA00C101C001BF010A30BE0080217A08B2
:10063000B9007908B8007808B7007708B600B40B9D
:10064000AA2A8A110A12942B03081F3983008316E1
:100650000317871508300313990002309A00A6305B
:100660009800903083129800FF30A600A615260847
:1006700083168700831226162608831687003130DA
:100680009300283083129400831694171413831256
:10069000A701A801AC01AB01AA01A90183160317A8
:1006A0000908C039890003131F129F120030031775
:1006B0008800831287018801890183130313A00135
:1006C000A1017628C0308B04831603170908C039AE
:1006D0001F38890003131F129F12FF300317880071
:1006E000831203131F179F1783169F1383121F1460
:1006F000B428BB010130BC00EB20043003178D008F
:1007000000308F00031007300313AD00292189301A
:1007100084002C08B0002B08AF002A08AE0029087E
:10072000AD000230B100CF29083003178D00003032
:100730008F00031404300313AD002921C830BB001F
:100740000B20782B83168601FF3083128600003041
:04075000F80063004A
:04400E00E22FFF3F5F
:00000001FF
;PIC16F887
;CRC=FBCD  CREATED="09-Jun-23 14:30"
