:1000000008308A000028000049376739E539651053
:10001000E337ED306E326F1D20050D00543465104E
:10002000E734F6326E10733AF234EE33A0347310C4
:100030003A10A5398A0600004F38E3346F373A107A
:1000400025328A068000A022733865396137E4378B
:10005000A031EF366137E4372E172E00202AE5361F
:1000600070173A102533A0210000A0266F3A6F398F
:10007000A0274E00A0266F3A6F39A0274623000123
:100080002026653273104F27000120266532731039
:100090004F23460055387316A0346E3A6537F43056
:1000A00020326510EE3A653B6F107537A031EF36A0
:1000B0006137E437A0346E3B613669326F058D20BD
:1000C000EC337537EF39A031EF366137E437731011
:1000D000F630EC34E4377310F3376E1D8A06ED37D3
:1000E000F43772106F372C10F03BED1E35182C10C2
:1000F000EC32E439A03766332C10F4326D386539B0
:10010000613A753961050D0052308400831300088F
:10011000031997280630F800F701F70B8D28F80B24
:100120008C287B30F700F70B9328800B8A28080077
:10013000590EF039F7000F300805770488000000E9
:1001400008140330F700F70BA3280810080008086C
:10015000F700080E0F39F800080083160810881001
:100160000811831288100F3083160805F0388800B4
:1001700083120815000008140000A7207808D90091
:10018000081000000814C428C5280000A72078081B
:10019000D80008100F308316080588008312590E06
:1001A000F700F030F70577085804F8007808D80011
:1001B000D81BB328561C8810561888140000081144
:1001C00000000810570ED8000F30D8055808D90085
:1001D000982057080F39D800D900982008002830F7
:1001E000C5000C30C6000130C7000630C80008103A
:1001F000881008110F308316080588000810881031
:1002000008110F308312D20084200130C40044084A
:10021000033C031C13290330D90098200530D20079
:100220008420C40A07290230D90098200530D20062
:100230008420C4014408033C031C2A294530440798
:10024000840083130008C900D6014908D700AD20F7
:10025000C40A1A298A150A1241280B08C9008B13EF
:10026000831603178C170C1400000000831203136D
:10027000C91B8B1703170C087F3903198329031334
:10028000C90003170D080313CA0003170F0803134F
:10029000CB0049080C1E4A2999004A0803178D0013
:1002A00003134B0803178F0003130B08CC008B13A9
:1002B000831603178C170C1400000000831203131D
:1002C000CC1B8B1703170C0D0E0D7F3903198329D7
:1002D0000313C90003170D080313CA0003170F08FF
:1002E0000313CB0049080C1E732999004A08031711
:1002F0008D0003134B0803178F008D0A03198F0A13
:1003000003132D290317031308000B08CA008B13CE
:10031000831603178C170C140000000083120313BC
:10032000CA1B8B170318BD2903170C087F39031349
:10033000CA0003170D080313CB0003170F0803139C
:10034000CC004A080C1EA22999004B0803178D0007
:1003500003134C0803178F0003130B08CD008B13F6
:10036000831603178C170C1400000000831203136C
:10037000CD1B8B17C90BBD29DD2903170C0D0E0DE5
:100380007F390313CA0003170D080313CB000317AB
:100390000F080313CC004A080C1ECC2999004B0807
:1003A00003178D0003134C0803178F008D0A0319E0
:1003B0008F0A03100313C90B852908004508C700DD
:1003C0004408C600043003178D0000308F0003136B
:1003D0002D218C1EE9291A08C8000D3C0319012A99
:1003E00048080C1EF12999004708FA004608C60A79
:1003F0000319C70A840083137A18831748088000FA
:10040000E9290A300C1E022A99000D300C1E062A1A
:1004100099004708FA004608C60A0319C70A84006B
:1004200083137A18831780010E3003178D00003074
:100430008F00031016300313C9008521440884007F
:1004400083134518831780080319392ACA01040841
:10045000C9004A10831B4A1400080C1E2D2A99005B
:100460004908840083134A188317840A0319850AEC
:10047000232A0A300C1E3A2A99000D300C1E3E2AFF
:1004800099008A150A125D288316D10151084D077B
:10049000840083134E188317800803196F2A5108AC
:1004A0004F078400831350188317800803196F2A9D
:1004B00051084D07840083134E1883170008D2009B
:1004C00051084F0784008313501883170008520205
:1004D00003196D2A0030F800862AD10A462A5108ED
:1004E0004D07840083134E1883178008031D842A48
:1004F00051084F0784008313501883178008031D89
:10050000842A0130F800862A0030F800831208009F
:10051000EE0174308316A0006530A1006D30A2009A
:100520007030A3006530A4007230A5006130A600D1
:100530007430A7007530A8007230A9006130AA009D
:10054000AB01F001A0308312EF007030F300773080
:10055000F4006D30F500F601F2017330F1006D30FA
:100560008316AC006F30AD007430AE006F30AF005A
:100570007230B000B101FC01AC30FB006C30B20055
:100580006530B3006430B4007330B500B601FE01CD
:10059000B230FD006F30B9006630BA00BB00BC015C
:1005A000B801B930B7006F30BF006E30C000C10174
:1005B000BE01BF30BD0083126E0844078400831360
:1005C000451883170008203C03190E2B6E084407BA
:1005D0008400831345188317800803190E2B4630B7
:1005E0006E07F800FA010318FA0A78088316C300A8
:1005F0007A08C40083126E084407840083134518E8
:10060000831700088316C500430884008313441829
:100610008317450880008312EE0ADC2A46306E07F5
:100620008400831380016E084407840083134518F7
:1006300083170008203C0319EE0A8316C2018312B7
:100640006E08440784008313451883178008031934
:100650004B2B5A3083164207F800FA010318FA0AA6
:100660007808C3007A08C40083126E084407840027
:1006700083134518831700088316C50043088400B8
:10068000831344188317450880008312EE0A8316EB
:10069000C20A1F2B83125A30831642078400831329
:1006A0008001CE014630CD007008D00083126F0863
:1006B0008316CF0083124422F8080319632B0130FC
:1006C000F800C82BC62B8316CE014630CD007C081F
:1006D000D0007B08CF0083124422F8080319952B21
:1006E0008316CE015A30CD003E08D0003D08CF0021
:1006F00083124422F8080319812B0230F800C82B1A
:10070000912B8316CE015A30CD003808D00037081F
:10071000CF0083124422F8080319912B0330F8000C
:10072000C82BFF30F800C82BC62B8316CE014630ED
:10073000CD007E08D0007D08CF0083124422F80847
:100740000319C62B8316CE015A30CD003E08D000C7
:100750003D08CF0083124422F8080319B32B04305C
:10076000F800C82BC32B8316CE015A30CD003808B1
:10077000D0003708CF0083124422F8080319C32B96
:100780000530F800C82BFF30F800C82BFF30F80008
:100790008A150A1263284B08F8014A020318D32B62
:1007A0004A08F700DF2BF7010830CC00CA0DF70D1F
:1007B0004B0877020318F700F80DCC0BD62B080076
:1007C0002030451E3030C6004408F700C41FF02B0F
:1007D000F709F70A7708C4002D30C600C51745147D
:1007E0004408CA006430CB00CB237708C400303003
:1007F0007807C7004408CA000A30CB00CB2330304A
:100800007707C90030307807C8004608F700303055
:10081000470203190F2CC514C51B4515232C460888
:10082000C7002030C6003030480203191B2C451485
:10083000C51BC514232C031D4514031D232C470879
:10084000C8002030C70045192A2CC5182E2C451881
:10085000322C362C46080C1E2B2C990047080C1EF7
:100860002F2C990048080C1E332C990049080C1EA7
:10087000372C99008A150A127828530B402C432CE8
:100880004030D400442CD40101305202D407540823
:100890008038D500D6015508D700AD200800510892
:1008A000073A03195D2C0B3A0319622C063A031917
:1008B0006A2C023A0319702C752C0130D200D30037
:1008C0003D247A2CD6010130D700AD200230D20071
:1008D00084207A2C0130D2000230D3003D247A2CBF
:1008E000D6011030D700AD207A2C0130D600510847
:1008F000D700AD2008000B08C4008B138316031724
:100900008C170C140000000083120313C41B8B17F8
:1009100003170C087F390319CF2C0313C4000317E6
:100920000D080313C50003170F080313C60044087E
:10093000D1004F24450803178D0003134608031701
:100940008F0003130B08C7008B13831603178C1734
:100950000C140000000083120313C71B8B1703172E
:100960000C0D0E0D7F390319CF2C0313C400031790
:100970000D080313C50003170F080313C60044082E
:10098000D1004F24450803178D00031346080317B1
:100990008F008D0A03198F0A03137B2C031703138F
:1009A00008000030F8001F08C33978049F000A309F
:1009B000D20084209F149F18DB2C03101E0DC5014C
:1009C000C4008E30F7004508F8004408F900FA0129
:1009D000F808031DF52C7908F800F9010830F70232
:1009E000F808031DF52CF701FD2C0310F81BFC2C57
:1009F000F90DF80DF703F52CF8137A08AC00790817
:100A0000AB007808AA007708A9008A150A12B02856
:100A10000B08C5008B13831603178C170C140000EA
:100A2000000083120313C51B8B1703183F2D0317F8
:100A30000C087F390313C50003170D080313C60004
:100A400003170F080313C7004508D1004F244608B9
:100A500003178D000313470803178F0003130B08B8
:100A6000C8008B13831603178C170C1400000000AA
:100A700083120313C81B8B17C40B3F2D5E2D031766
:100A80000C0D0E0D7F390313C50003170D0803135A
:100A9000C60003170F080313C7004508D1004F24F1
:100AA000460803178D000313470803178F008D0AAC
:100AB00003198F0A03100313C40B082D8A150A1299
:100AC000C2288318662D593084008313F701F8017A
:100AD000F901FA01D901DA01DB01DC0158085704F8
:100AE000560455040319A42D2030DD000310D10D48
:100AF000D20DD30DD40DD90DDA0DDB0DDC0D580858
:100B00005C02031D8D2D57085B02031D8D2D5608B9
:100B10005A02031D8D2D55085902031C9E2D5508A0
:100B2000D9025608031C560FDA025708031C570F48
:100B3000DB025808031C580FDC020314F70DF80DF4
:100B4000F90DFA0DDD0B762D59088000840A5A083C
:100B50008000840A5B088000840A5C08800008002A
:100B60000408C9004808CB000319422E4708D400E6
:100B70004608D3004508D2004408D100D801D70167
:100B80002030D6008230D50051080319342ED90008
:100B900055080319342ED9070318D52D7F30D902F3
:100BA000031C342E0319342ED92D8130D907031894
:100BB000342E5908F700F801F901FA015208DD0056
:100BC000DD175308DC005408DB001830D900DA01C7
:100BD0005B1C022E5808FA07031CF42DF90A031DAA
:100BE000F42DF80A0319DA175708F907031CFB2D2F
:100BF000F80A0319DA175608D300D3175308F80771
:100C00000318DA17DA0DF80CF90CFA0CDD0CDC0C11
:100C1000DB0C0310D90BE72D0130F7070318342E36
:100C2000F81B192EDD0DFA0DF90DF80DF703031958
:100C3000342EDD1F2A2EFA0A031D2A2EF90A031D5F
:100C40002A2EF80A031D2A2EF80CF90CFA0CF70AC2
:100C50000319342E5208DA005608DA06DA1F322E4B
:100C6000F817382EF813382EF701F801F901FA01B8
:100C70007A08C7007908C6007808C5007708C4005C
:100C8000CB0BB62D4708D4004608D3004508D20048
:100C90004408D1005108B63CD100FA015208D500F1
:100CA000D2170310D20CD30CD40CFA0CF90CF80C9C
:100CB000F70CD10B512ED51F682EF709F809F90949
:100CC000FA09F70A0319F80A0319F90A0319FA0AC3
:100CD0007A08C7007908C6007808C5007708C400FC
:100CE000C71F7F2EC903C916C409C509C609C7098C
:100CF000C40A0319C50A0319C60A0319C70A3B30F7
:100D0000D0009A30CF00CA30CE00CD010A30CB00DF
:100D100048080319C90A8314443084008313470820
:100D2000D4004608D3004508D2004408D10050083A
:100D3000D8004F08D7004E08D6004D08D5006125D1
:100D40007808F708031DB72E480A4B020319B72E7F
:100D500049080319B92E0F394B020319B12E031894
:100D6000E92EC91BE92E491BB92E2030E52E203073
:100D7000C905C91EC72EC9124808031DC903770833
:100D8000C9002D30D1004F244908F700C901480897
:100D90004B02031DD52E7708C9002E30D1004F24F9
:100DA0004908F7002030C90500303030C91EE52E53
:100DB000C9124808031DC9037708C9002D30D100A6
:100DC0004F244908F700C9013030F7077708D100F0
:100DD0004F2483105008D4004F08D3004E08D2008F
:100DE0004D08D100D801D701D6010A30D5006125C0
:100DF0007A08D0007908CF007808CE007708CD00B7
:100E0000CB0B8B2E8A150A12D128261026088316A2
:100E10008700831207108A150A12E928261026086F
:100E200083168700831207148A150A12062983166F
:100E30008601FF30831286008A150A122329831641
:0C0E40008601831286018A150A124029DF
:1010000003081F398300831603178715083003135D
:10101000990002309A00A630980090308312980010
:10102000FF30A600A6152608831687008312261611
:1010300026088316870031309300283083129400ED
:101040008316941714138312A701A801AC01AB01F6
:10105000AA01A901AE01AD01831603170908C03921
:10106000890003131F129F12003003178800831298
:1010700087018801890183130313A001A1018A114B
:10108000EF288A15C0308B04831603170908C0396E
:101090001F38890003131F129F12FF3003178800A7
:1010A000831203131F179F1783169F1383121F1496
:1010B000C5012F30C4008A11DE298A15C5012F30E1
:1010C000C4008A11882A8A157808C3001C300317C7
:1010D0008D0000308F00031008300313C9008A11FF
:1010E00085218A154308C4001830C5008A11E02BF9
:1010F0008A150A300C1E7A2899000D300C1E7E28A5
:101100009900430803199428013A0319A928033ABE
:101110000319E228013A0319FF28073A03191C2989
:10112000013A0319392956290C30D1008A114F246C
:101130008A15D2010130D3008A113D248A1523304B
:1011400003178D0000308F008A1103137B248A154A
:1011500060290C30D1008A114F248A158A11D12CB4
:101160008A15D2010130D3008A113D248A152E3010
:1011700003178D0000308F00031008300313C400E4
:101180008A11082D8A15893084002C08C7002B0885
:10119000C6002A08C5002908C4000230C8008A1108
:1011A000B02D8A152030D1008A114F248A15433082
:1011B000D1008A114F248A15C830D2008A118420A8
:1011C0008A1560290C30D1008A114F248A158A11A2
:1011D000052F8A15D2010130D3008A113D248A15CA
:1011E000353003178D0000308F008A1103137B24E4
:1011F0008A15C830D2008A1184208A1560290C30E3
:10120000D1008A114F248A158A110E2F8A15D20116
:101210000130D3008A113D248A153A3003178D001E
:1012200000308F008A1103137B248A15C830D20046
:101230008A1184208A1560290C30D1008A114F242C
:101240008A158A11172F8A15D2010130D3008A110D
:101250003D248A15403003178D0000308F008A111D
:1012600003137B248A15C830D2008A1184208A1582
:1012700060290C30D1008A114F248A158A111F2F42
:101280008A15D2010130D3008A113D248A154530D8
:1012900003178D0000308F008A1103137B248A15F9
:1012A000C830D2008A1184208A1560294A30031779
:1012B0008D0000308F008A1103132D218A156029BB
:0812C00058280030F80063001B
:04400E00E22FFF3F5F
:00000001FF
;PIC16F887
;CRC=1F54  CREATED="11-jun.-23 21:35"
