:1000000009308A006229000049376739E5396510EF
:10001000E337ED306E326F1D20050D00543465104E
:10002000E734F6326E10733AF234EE33A0347310C4
:100030003A10A5398A0600004F38E3346F373A107A
:1000400025328A068004A022733865396137E43787
:10005000A031EF366137E4372E172E00202AE5361F
:1000600070173A102533A0210000A0266F3A6F398F
:10007000A0274E00A0266F3A6F39A0274623000123
:100080002026653273104F27000120266532731039
:100090004F2346002028D726A022F834F437F33720
:1000A000210055387316A0346E3A6537F43020328B
:1000B0006510EE3A653B6F107537A031EF3661374A
:1000C000E437A0346E3B613669326F058D20EC3326
:1000D0007537EF39A031EF366137E4377310F630FA
:1000E000EC34E4377310F3376E1D8A06ED37F437BE
:1000F00072106F372C10F03BED1E35182C10EC32BF
:10010000E439A03766332C10F4326D386539613A22
:10011000753961050D0053308400831300080319FD
:100120009E280630F800F701F70B9428F80B932867
:100130007B30F700F70B9A28800B912808005A0EA5
:10014000F039F7000F300805770488000000081424
:100150000330F700F70BAA28081008000808F7007A
:10016000080E0F39F80008008316081088100811CF
:10017000831288100F3083160805F0388800831228
:100180000815000008140000AE207808DA000810F6
:1001900000000814CB28CC280000AE207808D90035
:1001A00008100F3083160805880083125A0EF700D6
:1001B000F030F70577085904F8007808D900D91B02
:1001C000BA28571C8810571888140000081100001E
:1001D0000810580ED9000F30D9055908DA009F20B1
:1001E00058080F39D900DA009F2008002830C600CF
:1001F0000C30C7000130C8000630C9000810881054
:1002000008110F308316080588000810881008119F
:100210000F308312D3008B200130C5004508033C0A
:10022000031C1A290330DA009F200530D3008B20ED
:10023000C50A0E290230DA009F200530D3008B203A
:10024000C5014508033C031C31294630450784009D
:1002500083130008CA00D7014A08D800B420C50A91
:1002600021298A150A12A4290B08CA008B138316A8
:1002700003178C170C140000000083120313CA1B11
:100280008B1703170C087F3903198A290313CA0037
:1002900003170D080313CB0003170F080313CC003B
:1002A0004A080C1E512999004B0803178D000313AF
:1002B0004C0803178F0003130B08CD008B13831614
:1002C00003178C170C140000000083120313CD1BBE
:1002D0008B1703170C0D0E0D7F3903198A29031391
:1002E000CA0003170D080313CB0003170F080313ED
:1002F000CC004A080C1E7A2999004B0803178D0080
:1003000003134C0803178F008D0A03198F0A031378
:1003100034290317031308000B08CB008B13831633
:1003200003178C170C140000000083120313CB1B5F
:100330008B170318C42903170C087F390313CB004C
:1003400003170D080313CC0003170F080313CD0088
:100350004B080C1EA92999004C0803178D000313A4
:100360004D0803178F0003130B08CE008B13831661
:1003700003178C170C140000000083120313CE1B0C
:100380008B17CA0BC429E42903170C0D0E0D7F39F6
:100390000313CB0003170D080313CC0003170F083A
:1003A0000313CD004B080C1ED32999004C080317EA
:1003B0008D0003134D0803178F008D0A03198F0A50
:1003C00003100313CA0B8C2908004608C80045080F
:1003D000C700043003178D0000308F000313342151
:1003E0008C1EF0291A08C9000D3C0319082A490877
:1003F0000C1EF82999004808FA004708C70A031993
:10040000C80A840083137A18831749088000F029EA
:100410000A300C1E092A99000D300C1E0D2A990075
:100420004808FA004708C70A0319C80A840083135A
:100430007A18831780010E3003178D0000308F006B
:10044000031016300313CA008C214508840083135F
:100450004618831780080319402ACB010408CA00F4
:100460004B10831B4B1400080C1E342A99004A08B9
:10047000840083134B188317840A0319850A2A2AD8
:100480000A300C1E412A99000D300C1E452A990095
:100490008A150A12D8298316D30153084F078400FE
:1004A00083135018831780080319762A53085107BD
:1004B000840083135218831780080319762A53087F
:1004C0004F0784008313501883170008D400530883
:1004D000510784008313521883170008540203192C
:1004E000742A0030F8008D2AD30A4D2A53084F078A
:1004F00084008313501883178008031D8B2A530828
:10050000510784008313521883178008031D8B2A18
:100510000130F8008D2A0030F80083120800EF0146
:1005200074308316A0006530A1006D30A2007030D9
:10053000A3006530A4007230A5006130A6007430BD
:10054000A7007530A8007230A9006130AA00AB0185
:10055000F101A030F0007030AC007730AD006D30AC
:10056000AE003D30AF00B001F301AC30F2006D30B1
:10057000B1006F30B2007430B3006F30B40072302D
:10058000B500B601F501B130F4006C30B70065304C
:10059000B8006430B9007330BA00BB01FC01B73059
:1005A000FB006F30BC006630BD00BE00BF01FE0125
:1005B000BC30FD006F30C2006E30C300C401C10109
:1005C000C230C00083126F084507840083134618A9
:1005D00083170008203C0319152B6F08450784007A
:1005E00083134618831780080319152B47306F07AC
:1005F000F800FA010318FA0A78088316C6007A0888
:10060000C70083126F0845078400831346188317B9
:1006100000088316C8004608840083134718831710
:10062000480880008312EF0AE32A47306F078400EE
:10063000831380016F0845078400831346188317CE
:100640000008203C0319EF0AF6016F0845078400F3
:10065000831346188317800803194E2B5B307607E7
:10066000F800FA010318FA0A78088316C6007A0817
:10067000C70083126F084507840083134618831749
:1006800000088316C80046088400831347188317A0
:10069000480880008312EF0AF60A252B5B307607A4
:1006A0008400831380018316D0014730CF00710886
:1006B000D2007008D10083124B22F8080319642B72
:1006C0000130F8004F2D4B2D8316D0014730CF005D
:1006D0007508D2007408D10083124B22F808031960
:1006E000962B8316D0015B30CF004108D200400822
:1006F000D10083124B22F8080319822B0230F80034
:100700004F2D922B8316D0015B30CF007E08D20094
:100710007D08D10083124B22F8080319922B033075
:10072000F8004F2DFF30F8004F2D4B2D8316D001D0
:100730004730CF007C08D2007B08D10083124B22C7
:10074000F8080319C82B8316D0015B30CF0041088D
:10075000D2004008D10083124B22F8080319B42BB1
:100760000430F8004F2DC42B8316D0015B30CF002E
:100770007E08D2007D08D10083124B22F8080319AD
:10078000C42B0530F8004F2DFF30F8004F2D4B2DB6
:100790008316D0014730CF007308D2007208D10011
:1007A0005008FA004F08840083137A1883178008D2
:1007B00003191A2C5008D4004F08D3005208D60051
:1007C0005108D5005608FA005508840083137A189A
:1007D000831780080319072C5408FA005308840073
:1007E00083137A1883170008D7005608FA005508B3
:1007F000840083137A18831700085702031D072CFF
:10080000D30A0319D40AD50A0319D60AE22B5608CB
:10081000FA005508840083137A1883178008031D93
:10082000162C4F08F8005008F9001D2CCF0A0319A8
:10083000D00AD02B0030F800F900780879040319A9
:100840004C2DD0014730CF005008D2004F08D100C6
:100850000430D1070318D20A5208D5005108D40039
:10086000D901D7010A30D800D60154085504031D18
:100870003C2C0030F8002F2D5908D90A5407840069
:100880008313551883170008DA005A082D3C031DFE
:10089000552C0130D7005908D90A54078400831316
:1008A000551883170008DA00622C5A082B3C031DE8
:1008B000622C5908D90A54078400831355188317EA
:1008C0000008DA005A082F3C0318252D5A08393C35
:1008D000031C252D5A08303C031D8E2C5908540743
:1008E00084008313551883170008783C0319822C61
:1008F0005908540784008313551883170008583C7F
:10090000031D8E2C1030D800D90A5908D90A540773
:1009100084008313551883170008DA0058080A3C2E
:10092000031DD32C5A082F3C0318D22C5A08393CEB
:10093000031CD22C0A30DB005608DC00F701F8015A
:100940005B0803105C18F707F70CF80CDC18F707C6
:10095000F70CF80C5C19F707F70CF80CDC19F70723
:10096000F70CF80C5C1AF707F70CF80CDC1AF70711
:10097000F70CF80C5C1BF707F70CF80CDC1BF707FF
:10098000F70CF80C7808DB0030305A025B07D60011
:100990005908D90A5407840083135518831700088F
:1009A000DA00922C252D5808103C031D252D5A08DD
:1009B000603C0318E22C5A087A3C031CE22C5A08CB
:1009C000DF39E32C5A08DA005A082F3C0318EC2CC4
:1009D0005A08393C0318F42C5A08403C0318252DBA
:1009E0005A08463C031C252D5A082F3C0318052D98
:1009F0005A08393C031C052D560EDB00F030DB0590
:100A000030305A025B07D6000E2D560EDB00F03058
:100A1000DB0541305A020A3E5B07D6005908D90A65
:100A2000540784008313551883170008DA005A0806
:100A3000603C0318222D5A087A3C031C222D5A08C8
:100A4000DF39232D5A08DA00E42C570B2D2D5808D6
:100A50000A3C031D2D2DD609D60A5608F800780841
:100A6000D3005308643C031C382D5308F8003A2D7A
:100A7000FF30F8007808C5004508FF3C0319472DF2
:100A800045088312AC000630F8004F2D8316FF3066
:100A9000F80083124F2D8316FF30F80083128A1559
:100AA0000A12DE294C08F8014B0203185A2D4B0894
:100AB000F700662DF7010830CD00CB0DF70D4C087F
:100AC00077020318F700F80DCD0B5D2D08002030DC
:100AD000461E3030C7004508F700C51F772DF709BF
:100AE000F70A7708C5002D30C700C6174614450819
:100AF000CB006430CC0052257708C5003030780731
:100B0000C8004508CB000A30CC00522530307707AA
:100B1000CA0030307807C9004708F7003030480273
:100B20000319962DC614C61B4615AA2D4708C800E2
:100B30002030C700303049020319A22D4614C61BCD
:100B4000C614AA2D031D4614031DAA2D4808C9006A
:100B50002030C8004619B12DC618B52D4618B92D3C
:100B6000BD2D47080C1EB22D990048080C1EB62D4D
:100B7000990049080C1EBA2D99004A080C1EBE2D7A
:100B800099008A150A12F329540BC72DCA2D40303B
:100B9000D500CB2DD50101305302D507550880383B
:100BA000D600D7015608D800B42008005208073AEA
:100BB0000319E42D0B3A0319E92D063A0319F12D17
:100BC000023A0319F72DFC2D0130D300D400C425BF
:100BD000012ED7010130D800B4200230D3008B2081
:100BE000012E0130D3000230D400C425012ED701DC
:100BF0001030D800B420012E0130D7005208D800A0
:100C0000B42008000B08C5008B13831603178C173C
:100C10000C140000000083120313C51B8B1703176D
:100C20000C087F390319562E0313C50003170D084E
:100C30000313C60003170F080313C7004508D200AB
:100C4000D625460803178D000313470803178F00A6
:100C500003130B08C8008B13831603178C170C148F
:100C60000000000083120313C81B8B1703170C0D21
:100C70000E0D7F390319562E0313C50003170D08F7
:100C80000313C60003170F080313C7004508D2005B
:100C9000D625460803178D000313470803178F0056
:100CA0008D0A03198F0A0313022E0317031308007A
:100CB0000030F8001F08C33978049F000A30D300C1
:100CC0008B209F149F18622E03101E0DC601C500B5
:100CD0008E30F7004608F8004508F900FA01F808D8
:100CE000031D7C2E7908F800F9010830F702F80896
:100CF000031D7C2EF701842E0310F81B832EF90DA3
:100D0000F80DF7037C2EF8137A08AB007908AA00D7
:100D10007808A9007708A8008A150A122E2A0B085D
:100D2000C6008B13831603178C170C1400000000E9
:100D300083120313C61B8B170318C62E03170C0848
:100D40007F390313C60003170D080313C7000317E9
:100D50000F080313C8004608D200D625470803171A
:100D60008D000313480803178F0003130B08C900F5
:100D70008B13831603178C170C14000000008312CA
:100D80000313C91B8B17C50BC62EE52E03170C0DBD
:100D90000E0D7F390313C60003170D080313C70098
:100DA00003170F080313C8004608D200D6254708CA
:100DB00003178D000313480803178F008D0A0319CA
:100DC0008F0A03100313C50B8F2E8A150A12402AAF
:100DD0008318ED2E5A3084008313F701F801F901CE
:100DE000FA01DA01DB01DC01DD015908580457047E
:100DF000560403192B2F2030DE000310D20DD30D23
:100E0000D40DD50DDA0DDB0DDC0DDD0D59085D02BD
:100E1000031D142F58085C02031D142F57085B0292
:100E2000031D142F56085A02031C252F5608DA02F8
:100E30005708031C570FDB025808031C580FDC022D
:100E40005908031C590FDD020314F70DF80DF90DB5
:100E5000FA0DDE0BFD2E5A088000840A5B08800024
:100E6000840A5C088000840A5D088000080026105F
:100E7000260883168700831207108A150A12652A2E
:100E80002610260883168700831207148A150A1273
:100E9000822A83168601FF30831286008A150A1281
:100EA0009F2A83168601831286018A150A12BC2A9C
:100EB000FA014508C800C7014808CA004708C90028
:100EC000CC016430CB00F801F901F701FA014C08BC
:100ED000031D6D2F4B080319872F1030CD00031011
:100EE000C90DCA0DF70DFA0D4C087A02031D7A2FB1
:100EF0004B087702031C832F4B08F702031CFA03ED
:100F00004C08FA020314F80DF90DCD0B6F2F780879
:0C0F1000C6004608F8008A150A12D62A0E
:101000000408CA004908CC00031993284808D500F1
:101010004708D4004608D3004508D200D901D801BA
:101020002030D7008230D600520803198528DA0014
:10103000560803198528DA07031C1F2826287F3045
:10104000DA02031C8528031985282A288130DA074B
:10105000031885285A08F700F801F901FA01530826
:10106000DE00DE175408DD005508DC001830DA0019
:10107000DB015C1C53285908FA07031C4528F90AB0
:10108000031D4528F80A0319DB175808F907031C44
:101090004C28F80A0319DB175708D400D417540852
:1010A000F8070318DB17DB0DF80CF90CFA0CDE0C53
:1010B000DD0CDC0C0310DA0B38280130F7070318BD
:1010C0008528F81B6A28DE0DFA0DF90DF80DF703D7
:1010D00003198528DE1F7B28FA0A031D7B28F90ADD
:1010E000031D7B28F80A031D7B28F80CF90CFA0C69
:1010F000F70A031985285308DB005708DB06DB1FB6
:101100008328F8178928F8138928F701F801F901CD
:10111000FA017A08C8007908C7007808C60077087D
:10112000C500CC0B06284808D5004708D40046085F
:10113000D3004508D2005208B63CD200FA01530849
:10114000D600D3170310D30CD40CD50CFA0CF90C21
:10115000F80CF70CD20BA228D61FB928F709F8090A
:10116000F909FA09F70A0319F80A0319F90A031920
:10117000FA0A7A08C8007908C7007808C600770814
:10118000C500C81FD028CA03CA16C509C609C709A1
:10119000C809C50A0319C60A0319C70A0319C80AE8
:1011A0003B30D1009A30D000CA30CF00CE010A3097
:1011B000CC0049080319CA0A8314453084008313FC
:1011C0004808D5004708D4004608D3004508D20097
:1011D0005108D9005008D8004F08D7004E08D60053
:1011E0008A11E8268A157808F708031D0A29490A92
:1011F0004C0203190A294A0803190C290F394C0219
:101200000319042903184429CA1B44294A1B0C2921
:1012100020303E292030CA05CA1E1C29CA1249089E
:10122000031DCA037708CA002D30D2008A11D625C3
:101230008A154A08F700CA0149084C02031D2C29E7
:101240007708CA002E30D2008A11D6258A154A089E
:10125000F7002030CA0500303030CA1E3E29CA12BD
:101260004908031DCA037708CA002D30D2008A112D
:10127000D6258A154A08F700CA013030F7077708E3
:10128000D2008A11D6258A1583105108D50050083E
:10129000D4004F08D3004E08D200D901D801D7019D
:1012A0000A30D6008A11E8268A157A08D100790812
:1012B000D0007808CF007708CE00CC0BDC288A1548
:1012C0000A124E2A03081F39830083160317871555
:1012D00008300313990002309A00A630980090302D
:1012E00083129800FF30A600A615260883168700F3
:1012F0008312261626088316870031309300283083
:10130000831294008316941714138312A701AB0160
:10131000AA01A901A8018230AC00AE01AD0183167B
:1013200003170908C039890003131F129F120030E8
:10133000031788008312870188018901831303132F
:10134000A001A1018A11F6288A15C0308B048316EA
:1013500003170908C0391F38890003131F129F1291
:10136000FF3003178800831203131F179F1783167C
:101370009F1383121F1426112608831687008312D9
:1013800007110C30970083169B019C0101309D00D2
:101390000030F80006388312920040308316920025
:1013A00083122C089500C6012F30C5008A11E5294B
:1013B0008A15C6012F30C5008A118F2A8A15780830
:1013C000C3001C3003178D0000308F00031008305D
:1013D0000313CA008A118C218A154308C5001830EE
:1013E000C6008A11672D8A150A300C1EF52999004E
:1013F0000D300C1EF929990043080319122A013AED
:101400000319272A033A03195E2A013A03197B2A92
:10141000073A0319982A013A0319B52A033A03191E
:10142000D22AF52A0C30D2008A11D6258A15D3018A
:101430000130D4008A11C4258A15233003178D008A
:1014400000308F008A11031302268A15FE2A0C3001
:10145000D2008A11D6258A158A11582E8A15D301F1
:101460000130D4008A11C4258A152E3003178D004F
:1014700000308F00031008300313C5008A118F2E2F
:101480008A15893084002B08C8002A08C70029085B
:10149000C6002808C5000230C90000282030D2004C
:1014A0008A11D6258A154330D2008A11D6258A158D
:1014B000C830D3008A118B208A15FE2A0C30D20046
:1014C0008A11D6258A158A11372F8A15D301013042
:1014D000D4008A11C4258A15353003178D000030D9
:1014E0008F008A11031302268A15C830D3008A118F
:1014F0008B208A15FE2A0C30D2008A11D6258A1537
:101500008A11402F8A15D3010130D4008A11C425D5
:101510008A153A3003178D0000308F008A110313AB
:1015200002268A15C830D3008A118B208A15FE2A1C
:101530000C30D2008A11D6258A158A11492F8A15B6
:10154000D3010130D4008A11C4258A154030031715
:101550008D0000308F008A11031302268A15C830CF
:10156000D3008A118B208A15FE2A0C30D2008A11F2
:10157000D6258A158A11512F8A15D3010130D4003E
:101580008A11C4258A15453003178D0000308F005D
:101590008A11031302268A15C830D3008A118B20C2
:1015A0008A15FE2A2C08C5008A11582F8A1578083A
:1015B000C400440895000C30D2008A11D6258A1543
:1015C000D3010130D4008A11C4258A154A3003178B
:1015D0008D0000308F008A11031302268A15C8304F
:1015E000D3008A118B208A15FE2A513003178D00F3
:1015F00000308F008A11031334218A15D32900305B
:04160000F80063008B
:04400E00E22FFF3F5F
:00000001FF
;PIC16F887
;CRC=AC9B  CREATED="12-Jun-23 13:17"
