:020000040000FA
:040000008A01052844
:06000A00831203138501BF
:10001000860183160317880183160313FF308500BA
:1000200083160317890183160313860183120313B2
:10003000A001A101050803398207212829283528B4
:100040003C28013086003230442086013230442082
:100050001A283020A00A20088600193044201A28C7
:100060001030200203191A280800A10A2108502084
:1000700086000A3044201A2820088600A00D44205B
:10008000201C3C2844201A28FD005030FE0052302D
:10009000FF00FF0B4928FE0B4728FD0B45280800F1
:1000A00007398207113433347734FF348834CC3441
:0400B000EE34FF34F7
:00000001FF
