:020000040000FA
:040000008A01052844
:06000A00831203138501BF
:10001000860183160317880183160313FF308500BA
:1000200083160317890183160313860183120313B2
:10003000A001A101050803398207212829283528B4
:100040003C2801308600323048208601323048207A
:100050001A283020A00A20088600193048201A28C3
:100060001030200203191A280800A10A2108542080
:1000700086000A3048201A288030A0002008860018
:1000800032304820201C45281A28A00CA00C3E28FD
:10009000FD005030FE005230FF00FF0B4D28FE0BDC
:1000A0004B28FD0B492808000739820711343334E7
:0C00B0007734FF348834CC34EE34FF3455
:00000001FF
